{
	"contracts/Kipu_Bank.sol": {
		"Kipu_Bank": {
			"abi": [
				{
					"inputs": [],
					"stateMutability": "nonpayable",
					"type": "constructor"
				},
				{
					"inputs": [
						{
							"internalType": "uint256",
							"name": "monto_requerido",
							"type": "uint256"
						},
						{
							"internalType": "uint256",
							"name": "balance_actual",
							"type": "uint256"
						}
					],
					"name": "FondosInsuficientes",
					"type": "error"
				},
				{
					"inputs": [
						{
							"internalType": "uint256",
							"name": "monto_enviado",
							"type": "uint256"
						},
						{
							"internalType": "uint256",
							"name": "monto_minimo",
							"type": "uint256"
						}
					],
					"name": "MenorAlMinimoDeposito",
					"type": "error"
				},
				{
					"inputs": [
						{
							"internalType": "uint256",
							"name": "monto_pedido",
							"type": "uint256"
						},
						{
							"internalType": "uint256",
							"name": "monto_minimo",
							"type": "uint256"
						}
					],
					"name": "MenorAlMinimoRetiro",
					"type": "error"
				},
				{
					"inputs": [
						{
							"internalType": "uint256",
							"name": "monto_requerido",
							"type": "uint256"
						},
						{
							"internalType": "uint256",
							"name": "umbral",
							"type": "uint256"
						}
					],
					"name": "RetiroMayorQueUmbral",
					"type": "error"
				},
				{
					"inputs": [
						{
							"internalType": "uint256",
							"name": "limite",
							"type": "uint256"
						}
					],
					"name": "SuperoLimiteDepositos",
					"type": "error"
				},
				{
					"inputs": [
						{
							"internalType": "address",
							"name": "usuario",
							"type": "address"
						}
					],
					"name": "UsuarioSinFondos",
					"type": "error"
				},
				{
					"anonymous": false,
					"inputs": [
						{
							"indexed": true,
							"internalType": "address",
							"name": "usuario",
							"type": "address"
						},
						{
							"indexed": false,
							"internalType": "uint256",
							"name": "monto_depositado",
							"type": "uint256"
						}
					],
					"name": "DepositoExitoso",
					"type": "event"
				},
				{
					"anonymous": false,
					"inputs": [
						{
							"indexed": true,
							"internalType": "address",
							"name": "usuario",
							"type": "address"
						},
						{
							"indexed": false,
							"internalType": "uint256",
							"name": "monto_retirado",
							"type": "uint256"
						}
					],
					"name": "RetiroExitoso",
					"type": "event"
				},
				{
					"stateMutability": "payable",
					"type": "fallback"
				},
				{
					"inputs": [],
					"name": "cantidad_depositos",
					"outputs": [
						{
							"internalType": "uint256",
							"name": "cantidad",
							"type": "uint256"
						}
					],
					"stateMutability": "view",
					"type": "function"
				},
				{
					"inputs": [],
					"name": "cantidad_retiros",
					"outputs": [
						{
							"internalType": "uint256",
							"name": "cantidad",
							"type": "uint256"
						}
					],
					"stateMutability": "view",
					"type": "function"
				},
				{
					"inputs": [],
					"name": "depositar",
					"outputs": [],
					"stateMutability": "payable",
					"type": "function"
				},
				{
					"inputs": [
						{
							"internalType": "uint256",
							"name": "monto_a_retirar",
							"type": "uint256"
						}
					],
					"name": "retirar",
					"outputs": [],
					"stateMutability": "nonpayable",
					"type": "function"
				},
				{
					"inputs": [],
					"name": "s_cant_depositos",
					"outputs": [
						{
							"internalType": "uint256",
							"name": "",
							"type": "uint256"
						}
					],
					"stateMutability": "view",
					"type": "function"
				},
				{
					"inputs": [],
					"name": "s_cant_retiros",
					"outputs": [
						{
							"internalType": "uint256",
							"name": "",
							"type": "uint256"
						}
					],
					"stateMutability": "view",
					"type": "function"
				},
				{
					"inputs": [],
					"name": "s_umbral",
					"outputs": [
						{
							"internalType": "uint256",
							"name": "",
							"type": "uint256"
						}
					],
					"stateMutability": "view",
					"type": "function"
				},
				{
					"stateMutability": "payable",
					"type": "receive"
				}
			],
			"devdoc": {
				"author": "Jose Maria",
				"kind": "dev",
				"methods": {
					"cantidad_depositos()": {
						"returns": {
							"cantidad": "de depositos realizados en el contrato"
						}
					},
					"cantidad_retiros()": {
						"returns": {
							"cantidad": "de retiros realizados en el contrato"
						}
					}
				},
				"title": "Kipu Bank",
				"version": 1
			},
			"evm": {
				"assembly": "    /* \"contracts/Kipu_Bank.sol\":182:5445  contract Kipu_Bank{... */\n  mstore(0x40, 0xa0)\n    /* \"contracts/Kipu_Bank.sol\":2398:2446  constructor(){... */\n  callvalue\n  dup1\n  iszero\n  tag_1\n  jumpi\n  0x00\n  dup1\n  revert\ntag_1:\n  pop\n    /* \"contracts/Kipu_Bank.sol\":2432:2439  1 ether */\n  0x0de0b6b3a7640000\n    /* \"contracts/Kipu_Bank.sol\":2421:2439  s_umbral = 1 ether */\n  0x80\n  dup2\n  dup2\n  mstore\n  pop\n  pop\n    /* \"contracts/Kipu_Bank.sol\":182:5445  contract Kipu_Bank{... */\n  mload(0x80)\n  codecopy(0x00, dataOffset(sub_0), dataSize(sub_0))\n  0x00\n  assignImmutable(\"0x277ab82e5a4641341820a4a2933a62c1de997e42e92548657ae21b3728d580fe\")\n  return(0x00, dataSize(sub_0))\nstop\n\nsub_0: assembly {\n        /* \"contracts/Kipu_Bank.sol\":182:5445  contract Kipu_Bank{... */\n      mstore(0x40, 0x80)\n      jumpi(tag_1, lt(calldatasize, 0x04))\n      shr(0xe0, calldataload(0x00))\n      dup1\n      0x67b9be79\n      gt\n      tag_10\n      jumpi\n      dup1\n      0x67b9be79\n      eq\n      tag_6\n      jumpi\n      dup1\n      0x6e459b5b\n      eq\n      tag_7\n      jumpi\n      dup1\n      0xb375d6fc\n      eq\n      tag_8\n      jumpi\n      dup1\n      0xe8b1298f\n      eq\n      tag_9\n      jumpi\n      jump(tag_2)\n    tag_10:\n      dup1\n      0x11355030\n      eq\n      tag_3\n      jumpi\n      dup1\n      0x3d922f90\n      eq\n      tag_4\n      jumpi\n      dup1\n      0x430887f2\n      eq\n      tag_5\n      jumpi\n      jump(tag_2)\n    tag_1:\n      jumpi(tag_2, calldatasize)\n        /* \"contracts/Kipu_Bank.sol\":2612:2622  _deposit() */\n      tag_13\n        /* \"contracts/Kipu_Bank.sol\":2612:2620  _deposit */\n      tag_14\n        /* \"contracts/Kipu_Bank.sol\":2612:2622  _deposit() */\n      jump\t// in\n    tag_13:\n        /* \"contracts/Kipu_Bank.sol\":182:5445  contract Kipu_Bank{... */\n      stop\n    tag_2:\n        /* \"contracts/Kipu_Bank.sol\":2830:2831  0 */\n      0x00\n        /* \"contracts/Kipu_Bank.sol\":2818:2827  msg.value */\n      callvalue\n        /* \"contracts/Kipu_Bank.sol\":2818:2831  msg.value > 0 */\n      gt\n        /* \"contracts/Kipu_Bank.sol\":2814:2928  if (msg.value > 0) {... */\n      iszero\n      tag_17\n      jumpi\n        /* \"contracts/Kipu_Bank.sol\":2847:2857  _deposit() */\n      tag_18\n        /* \"contracts/Kipu_Bank.sol\":2847:2855  _deposit */\n      tag_14\n        /* \"contracts/Kipu_Bank.sol\":2847:2857  _deposit() */\n      jump\t// in\n    tag_18:\n        /* \"contracts/Kipu_Bank.sol\":2814:2928  if (msg.value > 0) {... */\n      jump(tag_19)\n    tag_17:\n        /* \"contracts/Kipu_Bank.sol\":2888:2917  revert(\"Funcion inexistente\") */\n      mload(0x40)\n      0x08c379a000000000000000000000000000000000000000000000000000000000\n      dup2\n      mstore\n      0x04\n      add\n      tag_20\n      swap1\n      tag_21\n      jump\t// in\n    tag_20:\n      mload(0x40)\n      dup1\n      swap2\n      sub\n      swap1\n      revert\n        /* \"contracts/Kipu_Bank.sol\":2814:2928  if (msg.value > 0) {... */\n    tag_19:\n        /* \"contracts/Kipu_Bank.sol\":182:5445  contract Kipu_Bank{... */\n      stop\n        /* \"contracts/Kipu_Bank.sol\":378:409  uint256 public s_cant_depositos */\n    tag_3:\n      callvalue\n      dup1\n      iszero\n      tag_22\n      jumpi\n      0x00\n      dup1\n      revert\n    tag_22:\n      pop\n      tag_23\n      tag_24\n      jump\t// in\n    tag_23:\n      mload(0x40)\n      tag_25\n      swap2\n      swap1\n      tag_26\n      jump\t// in\n    tag_25:\n      mload(0x40)\n      dup1\n      swap2\n      sub\n      swap1\n      return\n        /* \"contracts/Kipu_Bank.sol\":3000:3066  function depositar() external payable {... */\n    tag_4:\n      tag_27\n      tag_28\n      jump\t// in\n    tag_27:\n      stop\n        /* \"contracts/Kipu_Bank.sol\":4310:4420  function cantidad_depositos() external view returns (uint256 cantidad){... */\n    tag_5:\n      callvalue\n      dup1\n      iszero\n      tag_29\n      jumpi\n      0x00\n      dup1\n      revert\n    tag_29:\n      pop\n      tag_30\n      tag_31\n      jump\t// in\n    tag_30:\n      mload(0x40)\n      tag_32\n      swap2\n      swap1\n      tag_26\n      jump\t// in\n    tag_32:\n      mload(0x40)\n      dup1\n      swap2\n      sub\n      swap1\n      return\n        /* \"contracts/Kipu_Bank.sol\":459:488  uint256 public s_cant_retiros */\n    tag_6:\n      callvalue\n      dup1\n      iszero\n      tag_33\n      jumpi\n      0x00\n      dup1\n      revert\n    tag_33:\n      pop\n      tag_34\n      tag_35\n      jump\t// in\n    tag_34:\n      mload(0x40)\n      tag_36\n      swap2\n      swap1\n      tag_26\n      jump\t// in\n    tag_36:\n      mload(0x40)\n      dup1\n      swap2\n      sub\n      swap1\n      return\n        /* \"contracts/Kipu_Bank.sol\":4533:4639  function cantidad_retiros() external view returns (uint256 cantidad){... */\n    tag_7:\n      callvalue\n      dup1\n      iszero\n      tag_37\n      jumpi\n      0x00\n      dup1\n      revert\n    tag_37:\n      pop\n      tag_38\n      tag_39\n      jump\t// in\n    tag_38:\n      mload(0x40)\n      tag_40\n      swap2\n      swap1\n      tag_26\n      jump\t// in\n    tag_40:\n      mload(0x40)\n      dup1\n      swap2\n      sub\n      swap1\n      return\n        /* \"contracts/Kipu_Bank.sol\":581:614  uint256 public immutable s_umbral */\n    tag_8:\n      callvalue\n      dup1\n      iszero\n      tag_41\n      jumpi\n      0x00\n      dup1\n      revert\n    tag_41:\n      pop\n      tag_42\n      tag_43\n      jump\t// in\n    tag_42:\n      mload(0x40)\n      tag_44\n      swap2\n      swap1\n      tag_26\n      jump\t// in\n    tag_44:\n      mload(0x40)\n      dup1\n      swap2\n      sub\n      swap1\n      return\n        /* \"contracts/Kipu_Bank.sol\":3193:4193  function retirar(uint256 monto_a_retirar) external usuario_tiene_fondos {... */\n    tag_9:\n      callvalue\n      dup1\n      iszero\n      tag_45\n      jumpi\n      0x00\n      dup1\n      revert\n    tag_45:\n      pop\n      tag_46\n      0x04\n      dup1\n      calldatasize\n      sub\n      dup2\n      add\n      swap1\n      tag_47\n      swap2\n      swap1\n      tag_48\n      jump\t// in\n    tag_47:\n      tag_49\n      jump\t// in\n    tag_46:\n      stop\n        /* \"contracts/Kipu_Bank.sol\":4782:5172  function _deposit() internal menor_limite_depositos{... */\n    tag_14:\n        /* \"contracts/Kipu_Bank.sol\":716:720  1000 */\n      0x03e8\n        /* \"contracts/Kipu_Bank.sol\":2051:2067  s_cant_depositos */\n      sload(0x01)\n        /* \"contracts/Kipu_Bank.sol\":2051:2096  s_cant_depositos >= s_limite_global_depositos */\n      lt\n        /* \"contracts/Kipu_Bank.sol\":2048:2214  if(s_cant_depositos >= s_limite_global_depositos){ //si se llego al limite de depositos... */\n      tag_51\n      jumpi\n        /* \"contracts/Kipu_Bank.sol\":716:720  1000 */\n      0x03e8\n        /* \"contracts/Kipu_Bank.sol\":2155:2203  SuperoLimiteDepositos(s_limite_global_depositos) */\n      mload(0x40)\n      0xc0e68f0e00000000000000000000000000000000000000000000000000000000\n      dup2\n      mstore\n      0x04\n      add\n      tag_52\n      swap2\n      swap1\n      tag_26\n      jump\t// in\n    tag_52:\n      mload(0x40)\n      dup1\n      swap2\n      sub\n      swap1\n      revert\n        /* \"contracts/Kipu_Bank.sol\":2048:2214  if(s_cant_depositos >= s_limite_global_depositos){ //si se llego al limite de depositos... */\n    tag_51:\n        /* \"contracts/Kipu_Bank.sol\":828:842  0.000001 ether */\n      0xe8d4a51000\n        /* \"contracts/Kipu_Bank.sol\":4846:4855  msg.value */\n      callvalue\n        /* \"contracts/Kipu_Bank.sol\":4846:4879  msg.value < MONTO_MINIMO_DEPOSITO */\n      lt\n        /* \"contracts/Kipu_Bank.sol\":4843:4999  if(msg.value < MONTO_MINIMO_DEPOSITO){ //si el monto es menor al minimo... */\n      iszero\n      tag_54\n      jumpi\n        /* \"contracts/Kipu_Bank.sol\":4956:4965  msg.value */\n      callvalue\n        /* \"contracts/Kipu_Bank.sol\":828:842  0.000001 ether */\n      0xe8d4a51000\n        /* \"contracts/Kipu_Bank.sol\":4934:4988  MenorAlMinimoDeposito(msg.value,MONTO_MINIMO_DEPOSITO) */\n      mload(0x40)\n      0x7d34450100000000000000000000000000000000000000000000000000000000\n      dup2\n      mstore\n      0x04\n      add\n      tag_55\n      swap3\n      swap2\n      swap1\n      tag_56\n      jump\t// in\n    tag_55:\n      mload(0x40)\n      dup1\n      swap2\n      sub\n      swap1\n      revert\n        /* \"contracts/Kipu_Bank.sol\":4843:4999  if(msg.value < MONTO_MINIMO_DEPOSITO){ //si el monto es menor al minimo... */\n    tag_54:\n        /* \"contracts/Kipu_Bank.sol\":5051:5060  msg.value */\n      callvalue\n        /* \"contracts/Kipu_Bank.sol\":5017:5035  s_usuarios_balance */\n      0x00\n        /* \"contracts/Kipu_Bank.sol\":5017:5047  s_usuarios_balance[msg.sender] */\n      dup1\n        /* \"contracts/Kipu_Bank.sol\":5036:5046  msg.sender */\n      caller\n        /* \"contracts/Kipu_Bank.sol\":5017:5047  s_usuarios_balance[msg.sender] */\n      0xffffffffffffffffffffffffffffffffffffffff\n      and\n      0xffffffffffffffffffffffffffffffffffffffff\n      and\n      dup2\n      mstore\n      0x20\n      add\n      swap1\n      dup2\n      mstore\n      0x20\n      add\n      0x00\n      keccak256\n      0x00\n        /* \"contracts/Kipu_Bank.sol\":5017:5060  s_usuarios_balance[msg.sender] += msg.value */\n      dup3\n      dup3\n      sload\n      tag_57\n      swap2\n      swap1\n      tag_58\n      jump\t// in\n    tag_57:\n      swap3\n      pop\n      pop\n      dup2\n      swap1\n      sstore\n      pop\n        /* \"contracts/Kipu_Bank.sol\":5110:5111  1 */\n      0x01\n        /* \"contracts/Kipu_Bank.sol\":5090:5106  s_cant_depositos */\n      dup1\n      0x00\n        /* \"contracts/Kipu_Bank.sol\":5090:5111  s_cant_depositos += 1 */\n      dup3\n      dup3\n      sload\n      tag_59\n      swap2\n      swap1\n      tag_58\n      jump\t// in\n    tag_59:\n      swap3\n      pop\n      pop\n      dup2\n      swap1\n      sstore\n      pop\n        /* \"contracts/Kipu_Bank.sol\":5143:5153  msg.sender */\n      caller\n        /* \"contracts/Kipu_Bank.sol\":5127:5165  DepositoExitoso(msg.sender, msg.value) */\n      0xffffffffffffffffffffffffffffffffffffffff\n      and\n      0x8e13c232b6ad491513c1540f8bc226e1c5072f2f8b9bcd13088a478c67fd5a49\n        /* \"contracts/Kipu_Bank.sol\":5155:5164  msg.value */\n      callvalue\n        /* \"contracts/Kipu_Bank.sol\":5127:5165  DepositoExitoso(msg.sender, msg.value) */\n      mload(0x40)\n      tag_60\n      swap2\n      swap1\n      tag_26\n      jump\t// in\n    tag_60:\n      mload(0x40)\n      dup1\n      swap2\n      sub\n      swap1\n      log2\n        /* \"contracts/Kipu_Bank.sol\":4782:5172  function _deposit() internal menor_limite_depositos{... */\n      jump\t// out\n        /* \"contracts/Kipu_Bank.sol\":378:409  uint256 public s_cant_depositos */\n    tag_24:\n      sload(0x01)\n      dup2\n      jump\t// out\n        /* \"contracts/Kipu_Bank.sol\":3000:3066  function depositar() external payable {... */\n    tag_28:\n        /* \"contracts/Kipu_Bank.sol\":3048:3058  _deposit() */\n      tag_62\n        /* \"contracts/Kipu_Bank.sol\":3048:3056  _deposit */\n      tag_14\n        /* \"contracts/Kipu_Bank.sol\":3048:3058  _deposit() */\n      jump\t// in\n    tag_62:\n        /* \"contracts/Kipu_Bank.sol\":3000:3066  function depositar() external payable {... */\n      jump\t// out\n        /* \"contracts/Kipu_Bank.sol\":4310:4420  function cantidad_depositos() external view returns (uint256 cantidad){... */\n    tag_31:\n        /* \"contracts/Kipu_Bank.sol\":4363:4379  uint256 cantidad */\n      0x00\n        /* \"contracts/Kipu_Bank.sol\":4397:4413  s_cant_depositos */\n      sload(0x01)\n        /* \"contracts/Kipu_Bank.sol\":4390:4413  return s_cant_depositos */\n      swap1\n      pop\n        /* \"contracts/Kipu_Bank.sol\":4310:4420  function cantidad_depositos() external view returns (uint256 cantidad){... */\n      swap1\n      jump\t// out\n        /* \"contracts/Kipu_Bank.sol\":459:488  uint256 public s_cant_retiros */\n    tag_35:\n      sload(0x02)\n      dup2\n      jump\t// out\n        /* \"contracts/Kipu_Bank.sol\":4533:4639  function cantidad_retiros() external view returns (uint256 cantidad){... */\n    tag_39:\n        /* \"contracts/Kipu_Bank.sol\":4584:4600  uint256 cantidad */\n      0x00\n        /* \"contracts/Kipu_Bank.sol\":4618:4632  s_cant_retiros */\n      sload(0x02)\n        /* \"contracts/Kipu_Bank.sol\":4611:4632  return s_cant_retiros */\n      swap1\n      pop\n        /* \"contracts/Kipu_Bank.sol\":4533:4639  function cantidad_retiros() external view returns (uint256 cantidad){... */\n      swap1\n      jump\t// out\n        /* \"contracts/Kipu_Bank.sol\":581:614  uint256 public immutable s_umbral */\n    tag_43:\n      immutable(\"0x277ab82e5a4641341820a4a2933a62c1de997e42e92548657ae21b3728d580fe\")\n      dup2\n      jump\t// out\n        /* \"contracts/Kipu_Bank.sol\":3193:4193  function retirar(uint256 monto_a_retirar) external usuario_tiene_fondos {... */\n    tag_49:\n        /* \"contracts/Kipu_Bank.sol\":2313:2314  0 */\n      0x00\n        /* \"contracts/Kipu_Bank.sol\":2281:2299  s_usuarios_balance */\n      dup1\n        /* \"contracts/Kipu_Bank.sol\":2281:2311  s_usuarios_balance[msg.sender] */\n      0x00\n        /* \"contracts/Kipu_Bank.sol\":2300:2310  msg.sender */\n      caller\n        /* \"contracts/Kipu_Bank.sol\":2281:2311  s_usuarios_balance[msg.sender] */\n      0xffffffffffffffffffffffffffffffffffffffff\n      and\n      0xffffffffffffffffffffffffffffffffffffffff\n      and\n      dup2\n      mstore\n      0x20\n      add\n      swap1\n      dup2\n      mstore\n      0x20\n      add\n      0x00\n      keccak256\n      sload\n        /* \"contracts/Kipu_Bank.sol\":2281:2314  s_usuarios_balance[msg.sender]==0 */\n      sub\n        /* \"contracts/Kipu_Bank.sol\":2278:2375  if(s_usuarios_balance[msg.sender]==0){... */\n      tag_66\n      jumpi\n        /* \"contracts/Kipu_Bank.sol\":2353:2363  msg.sender */\n      caller\n        /* \"contracts/Kipu_Bank.sol\":2336:2364  UsuarioSinFondos(msg.sender) */\n      mload(0x40)\n      0x3f0ce42500000000000000000000000000000000000000000000000000000000\n      dup2\n      mstore\n      0x04\n      add\n      tag_67\n      swap2\n      swap1\n      tag_68\n      jump\t// in\n    tag_67:\n      mload(0x40)\n      dup1\n      swap2\n      sub\n      swap1\n      revert\n        /* \"contracts/Kipu_Bank.sol\":2278:2375  if(s_usuarios_balance[msg.sender]==0){... */\n    tag_66:\n        /* \"contracts/Kipu_Bank.sol\":3275:3298  uint256 balance_usuario */\n      0x00\n        /* \"contracts/Kipu_Bank.sol\":3301:3332  balance_del_usuario(msg.sender) */\n      tag_70\n        /* \"contracts/Kipu_Bank.sol\":3321:3331  msg.sender */\n      caller\n        /* \"contracts/Kipu_Bank.sol\":3301:3320  balance_del_usuario */\n      tag_71\n        /* \"contracts/Kipu_Bank.sol\":3301:3332  balance_del_usuario(msg.sender) */\n      jump\t// in\n    tag_70:\n        /* \"contracts/Kipu_Bank.sol\":3275:3332  uint256 balance_usuario = balance_del_usuario(msg.sender) */\n      swap1\n      pop\n        /* \"contracts/Kipu_Bank.sol\":3385:3393  s_umbral */\n      immutable(\"0x277ab82e5a4641341820a4a2933a62c1de997e42e92548657ae21b3728d580fe\")\n        /* \"contracts/Kipu_Bank.sol\":3367:3382  monto_a_retirar */\n      dup3\n        /* \"contracts/Kipu_Bank.sol\":3367:3393  monto_a_retirar > s_umbral */\n      gt\n        /* \"contracts/Kipu_Bank.sol\":3364:3506  if(monto_a_retirar > s_umbral){ //si el monto es mayor al umbral... */\n      iszero\n      tag_72\n      jumpi\n        /* \"contracts/Kipu_Bank.sol\":3469:3484  monto_a_retirar */\n      dup2\n        /* \"contracts/Kipu_Bank.sol\":3486:3494  s_umbral */\n      immutable(\"0x277ab82e5a4641341820a4a2933a62c1de997e42e92548657ae21b3728d580fe\")\n        /* \"contracts/Kipu_Bank.sol\":3448:3495  RetiroMayorQueUmbral(monto_a_retirar, s_umbral) */\n      mload(0x40)\n      0x6e95715200000000000000000000000000000000000000000000000000000000\n      dup2\n      mstore\n      0x04\n      add\n      tag_73\n      swap3\n      swap2\n      swap1\n      tag_56\n      jump\t// in\n    tag_73:\n      mload(0x40)\n      dup1\n      swap2\n      sub\n      swap1\n      revert\n        /* \"contracts/Kipu_Bank.sol\":3364:3506  if(monto_a_retirar > s_umbral){ //si el monto es mayor al umbral... */\n    tag_72:\n        /* \"contracts/Kipu_Bank.sol\":946:960  0.000001 ether */\n      0xe8d4a51000\n        /* \"contracts/Kipu_Bank.sol\":3518:3533  monto_a_retirar */\n      dup3\n        /* \"contracts/Kipu_Bank.sol\":3518:3555  monto_a_retirar < MONTO_MINIMO_RETIRO */\n      lt\n        /* \"contracts/Kipu_Bank.sol\":3515:3677  if(monto_a_retirar < MONTO_MINIMO_RETIRO){ //si el monto es menor al minimo... */\n      iszero\n      tag_74\n      jumpi\n        /* \"contracts/Kipu_Bank.sol\":3630:3645  monto_a_retirar */\n      dup2\n        /* \"contracts/Kipu_Bank.sol\":946:960  0.000001 ether */\n      0xe8d4a51000\n        /* \"contracts/Kipu_Bank.sol\":3610:3666  MenorAlMinimoRetiro(monto_a_retirar,MONTO_MINIMO_RETIRO) */\n      mload(0x40)\n      0x84f16cad00000000000000000000000000000000000000000000000000000000\n      dup2\n      mstore\n      0x04\n      add\n      tag_75\n      swap3\n      swap2\n      swap1\n      tag_56\n      jump\t// in\n    tag_75:\n      mload(0x40)\n      dup1\n      swap2\n      sub\n      swap1\n      revert\n        /* \"contracts/Kipu_Bank.sol\":3515:3677  if(monto_a_retirar < MONTO_MINIMO_RETIRO){ //si el monto es menor al minimo... */\n    tag_74:\n        /* \"contracts/Kipu_Bank.sol\":3708:3723  monto_a_retirar */\n      dup2\n        /* \"contracts/Kipu_Bank.sol\":3690:3705  balance_usuario */\n      dup2\n        /* \"contracts/Kipu_Bank.sol\":3690:3723  balance_usuario < monto_a_retirar */\n      lt\n        /* \"contracts/Kipu_Bank.sol\":3686:3847  if (balance_usuario < monto_a_retirar){ //si el monto es mayor que el balance... */\n      iszero\n      tag_76\n      jumpi\n        /* \"contracts/Kipu_Bank.sol\":3803:3818  monto_a_retirar */\n      dup2\n        /* \"contracts/Kipu_Bank.sol\":3820:3835  balance_usuario */\n      dup2\n        /* \"contracts/Kipu_Bank.sol\":3783:3836  FondosInsuficientes(monto_a_retirar, balance_usuario) */\n      mload(0x40)\n      0x6d11cf3400000000000000000000000000000000000000000000000000000000\n      dup2\n      mstore\n      0x04\n      add\n      tag_77\n      swap3\n      swap2\n      swap1\n      tag_56\n      jump\t// in\n    tag_77:\n      mload(0x40)\n      dup1\n      swap2\n      sub\n      swap1\n      revert\n        /* \"contracts/Kipu_Bank.sol\":3686:3847  if (balance_usuario < monto_a_retirar){ //si el monto es mayor que el balance... */\n    tag_76:\n        /* \"contracts/Kipu_Bank.sol\":3891:3906  monto_a_retirar */\n      dup2\n        /* \"contracts/Kipu_Bank.sol\":3857:3875  s_usuarios_balance */\n      0x00\n        /* \"contracts/Kipu_Bank.sol\":3857:3887  s_usuarios_balance[msg.sender] */\n      dup1\n        /* \"contracts/Kipu_Bank.sol\":3876:3886  msg.sender */\n      caller\n        /* \"contracts/Kipu_Bank.sol\":3857:3887  s_usuarios_balance[msg.sender] */\n      0xffffffffffffffffffffffffffffffffffffffff\n      and\n      0xffffffffffffffffffffffffffffffffffffffff\n      and\n      dup2\n      mstore\n      0x20\n      add\n      swap1\n      dup2\n      mstore\n      0x20\n      add\n      0x00\n      keccak256\n      0x00\n        /* \"contracts/Kipu_Bank.sol\":3857:3906  s_usuarios_balance[msg.sender] -= monto_a_retirar */\n      dup3\n      dup3\n      sload\n      tag_78\n      swap2\n      swap1\n      tag_79\n      jump\t// in\n    tag_78:\n      swap3\n      pop\n      pop\n      dup2\n      swap1\n      sstore\n      pop\n        /* \"contracts/Kipu_Bank.sol\":3959:3971  bool success */\n      0x00\n        /* \"contracts/Kipu_Bank.sol\":3977:3987  msg.sender */\n      caller\n        /* \"contracts/Kipu_Bank.sol\":3977:3992  msg.sender.call */\n      0xffffffffffffffffffffffffffffffffffffffff\n      and\n        /* \"contracts/Kipu_Bank.sol\":4000:4015  monto_a_retirar */\n      dup4\n        /* \"contracts/Kipu_Bank.sol\":3977:4020  msg.sender.call{value: monto_a_retirar}(\"\") */\n      mload(0x40)\n      tag_80\n      swap1\n      tag_81\n      jump\t// in\n    tag_80:\n      0x00\n      mload(0x40)\n      dup1\n      dup4\n      sub\n      dup2\n      dup6\n      dup8\n      gas\n      call\n      swap3\n      pop\n      pop\n      pop\n      returndatasize\n      dup1\n      0x00\n      dup2\n      eq\n      tag_84\n      jumpi\n      mload(0x40)\n      swap2\n      pop\n      and(add(returndatasize, 0x3f), not(0x1f))\n      dup3\n      add\n      0x40\n      mstore\n      returndatasize\n      dup3\n      mstore\n      returndatasize\n      0x00\n      0x20\n      dup5\n      add\n      returndatacopy\n      jump(tag_83)\n    tag_84:\n      0x60\n      swap2\n      pop\n    tag_83:\n      pop\n        /* \"contracts/Kipu_Bank.sol\":3958:4020  (bool success, ) = msg.sender.call{value: monto_a_retirar}(\"\") */\n      pop\n      swap1\n      pop\n        /* \"contracts/Kipu_Bank.sol\":4054:4061  success */\n      dup1\n        /* \"contracts/Kipu_Bank.sol\":4046:4099  require(success, \"fallo la transferencia al usuario\") */\n      tag_85\n      jumpi\n      mload(0x40)\n      0x08c379a000000000000000000000000000000000000000000000000000000000\n      dup2\n      mstore\n      0x04\n      add\n      tag_86\n      swap1\n      tag_87\n      jump\t// in\n    tag_86:\n      mload(0x40)\n      dup1\n      swap2\n      sub\n      swap1\n      revert\n    tag_85:\n        /* \"contracts/Kipu_Bank.sol\":4127:4128  1 */\n      0x01\n        /* \"contracts/Kipu_Bank.sol\":4109:4123  s_cant_retiros */\n      0x02\n      0x00\n        /* \"contracts/Kipu_Bank.sol\":4109:4128  s_cant_retiros += 1 */\n      dup3\n      dup3\n      sload\n      tag_88\n      swap2\n      swap1\n      tag_58\n      jump\t// in\n    tag_88:\n      swap3\n      pop\n      pop\n      dup2\n      swap1\n      sstore\n      pop\n        /* \"contracts/Kipu_Bank.sol\":4158:4168  msg.sender */\n      caller\n        /* \"contracts/Kipu_Bank.sol\":4144:4186  RetiroExitoso(msg.sender, monto_a_retirar) */\n      0xffffffffffffffffffffffffffffffffffffffff\n      and\n      0x6553d752fc46d96aab714525ba8f58c666892e2a31f2bf65d6d87db515bf81aa\n        /* \"contracts/Kipu_Bank.sol\":4170:4185  monto_a_retirar */\n      dup5\n        /* \"contracts/Kipu_Bank.sol\":4144:4186  RetiroExitoso(msg.sender, monto_a_retirar) */\n      mload(0x40)\n      tag_89\n      swap2\n      swap1\n      tag_26\n      jump\t// in\n    tag_89:\n      mload(0x40)\n      dup1\n      swap2\n      sub\n      swap1\n      log2\n        /* \"contracts/Kipu_Bank.sol\":3265:4193  {... */\n      pop\n      pop\n        /* \"contracts/Kipu_Bank.sol\":3193:4193  function retirar(uint256 monto_a_retirar) external usuario_tiene_fondos {... */\n      pop\n      jump\t// out\n        /* \"contracts/Kipu_Bank.sol\":5308:5442  function balance_del_usuario(address usuario) private view returns(uint256 balance){... */\n    tag_71:\n        /* \"contracts/Kipu_Bank.sol\":5375:5390  uint256 balance */\n      0x00\n        /* \"contracts/Kipu_Bank.sol\":5408:5426  s_usuarios_balance */\n      dup1\n        /* \"contracts/Kipu_Bank.sol\":5408:5435  s_usuarios_balance[usuario] */\n      0x00\n        /* \"contracts/Kipu_Bank.sol\":5427:5434  usuario */\n      dup4\n        /* \"contracts/Kipu_Bank.sol\":5408:5435  s_usuarios_balance[usuario] */\n      0xffffffffffffffffffffffffffffffffffffffff\n      and\n      0xffffffffffffffffffffffffffffffffffffffff\n      and\n      dup2\n      mstore\n      0x20\n      add\n      swap1\n      dup2\n      mstore\n      0x20\n      add\n      0x00\n      keccak256\n      sload\n        /* \"contracts/Kipu_Bank.sol\":5401:5435  return s_usuarios_balance[usuario] */\n      swap1\n      pop\n        /* \"contracts/Kipu_Bank.sol\":5308:5442  function balance_del_usuario(address usuario) private view returns(uint256 balance){... */\n      swap2\n      swap1\n      pop\n      jump\t// out\n        /* \"#utility.yul\":7:176   */\n    tag_91:\n        /* \"#utility.yul\":91:102   */\n      0x00\n        /* \"#utility.yul\":125:131   */\n      dup3\n        /* \"#utility.yul\":120:123   */\n      dup3\n        /* \"#utility.yul\":113:132   */\n      mstore\n        /* \"#utility.yul\":165:169   */\n      0x20\n        /* \"#utility.yul\":160:163   */\n      dup3\n        /* \"#utility.yul\":156:170   */\n      add\n        /* \"#utility.yul\":141:170   */\n      swap1\n      pop\n        /* \"#utility.yul\":7:176   */\n      swap3\n      swap2\n      pop\n      pop\n      jump\t// out\n        /* \"#utility.yul\":182:351   */\n    tag_92:\n        /* \"#utility.yul\":322:343   */\n      0x46756e63696f6e20696e6578697374656e746500000000000000000000000000\n        /* \"#utility.yul\":318:319   */\n      0x00\n        /* \"#utility.yul\":310:316   */\n      dup3\n        /* \"#utility.yul\":306:320   */\n      add\n        /* \"#utility.yul\":299:344   */\n      mstore\n        /* \"#utility.yul\":182:351   */\n      pop\n      jump\t// out\n        /* \"#utility.yul\":357:723   */\n    tag_93:\n        /* \"#utility.yul\":499:502   */\n      0x00\n        /* \"#utility.yul\":520:587   */\n      tag_114\n        /* \"#utility.yul\":584:586   */\n      0x13\n        /* \"#utility.yul\":579:582   */\n      dup4\n        /* \"#utility.yul\":520:587   */\n      tag_91\n      jump\t// in\n    tag_114:\n        /* \"#utility.yul\":513:587   */\n      swap2\n      pop\n        /* \"#utility.yul\":596:689   */\n      tag_115\n        /* \"#utility.yul\":685:688   */\n      dup3\n        /* \"#utility.yul\":596:689   */\n      tag_92\n      jump\t// in\n    tag_115:\n        /* \"#utility.yul\":714:716   */\n      0x20\n        /* \"#utility.yul\":709:712   */\n      dup3\n        /* \"#utility.yul\":705:717   */\n      add\n        /* \"#utility.yul\":698:717   */\n      swap1\n      pop\n        /* \"#utility.yul\":357:723   */\n      swap2\n      swap1\n      pop\n      jump\t// out\n        /* \"#utility.yul\":729:1148   */\n    tag_21:\n        /* \"#utility.yul\":895:899   */\n      0x00\n        /* \"#utility.yul\":933:935   */\n      0x20\n        /* \"#utility.yul\":922:931   */\n      dup3\n        /* \"#utility.yul\":918:936   */\n      add\n        /* \"#utility.yul\":910:936   */\n      swap1\n      pop\n        /* \"#utility.yul\":982:991   */\n      dup2\n        /* \"#utility.yul\":976:980   */\n      dup2\n        /* \"#utility.yul\":972:992   */\n      sub\n        /* \"#utility.yul\":968:969   */\n      0x00\n        /* \"#utility.yul\":957:966   */\n      dup4\n        /* \"#utility.yul\":953:970   */\n      add\n        /* \"#utility.yul\":946:993   */\n      mstore\n        /* \"#utility.yul\":1010:1141   */\n      tag_117\n        /* \"#utility.yul\":1136:1140   */\n      dup2\n        /* \"#utility.yul\":1010:1141   */\n      tag_93\n      jump\t// in\n    tag_117:\n        /* \"#utility.yul\":1002:1141   */\n      swap1\n      pop\n        /* \"#utility.yul\":729:1148   */\n      swap2\n      swap1\n      pop\n      jump\t// out\n        /* \"#utility.yul\":1154:1231   */\n    tag_94:\n        /* \"#utility.yul\":1191:1198   */\n      0x00\n        /* \"#utility.yul\":1220:1225   */\n      dup2\n        /* \"#utility.yul\":1209:1225   */\n      swap1\n      pop\n        /* \"#utility.yul\":1154:1231   */\n      swap2\n      swap1\n      pop\n      jump\t// out\n        /* \"#utility.yul\":1237:1355   */\n    tag_95:\n        /* \"#utility.yul\":1324:1348   */\n      tag_120\n        /* \"#utility.yul\":1342:1347   */\n      dup2\n        /* \"#utility.yul\":1324:1348   */\n      tag_94\n      jump\t// in\n    tag_120:\n        /* \"#utility.yul\":1319:1322   */\n      dup3\n        /* \"#utility.yul\":1312:1349   */\n      mstore\n        /* \"#utility.yul\":1237:1355   */\n      pop\n      pop\n      jump\t// out\n        /* \"#utility.yul\":1361:1583   */\n    tag_26:\n        /* \"#utility.yul\":1454:1458   */\n      0x00\n        /* \"#utility.yul\":1492:1494   */\n      0x20\n        /* \"#utility.yul\":1481:1490   */\n      dup3\n        /* \"#utility.yul\":1477:1495   */\n      add\n        /* \"#utility.yul\":1469:1495   */\n      swap1\n      pop\n        /* \"#utility.yul\":1505:1576   */\n      tag_122\n        /* \"#utility.yul\":1573:1574   */\n      0x00\n        /* \"#utility.yul\":1562:1571   */\n      dup4\n        /* \"#utility.yul\":1558:1575   */\n      add\n        /* \"#utility.yul\":1549:1555   */\n      dup5\n        /* \"#utility.yul\":1505:1576   */\n      tag_95\n      jump\t// in\n    tag_122:\n        /* \"#utility.yul\":1361:1583   */\n      swap3\n      swap2\n      pop\n      pop\n      jump\t// out\n        /* \"#utility.yul\":1670:1787   */\n    tag_97:\n        /* \"#utility.yul\":1779:1780   */\n      0x00\n        /* \"#utility.yul\":1776:1777   */\n      dup1\n        /* \"#utility.yul\":1769:1781   */\n      revert\n        /* \"#utility.yul\":1916:2038   */\n    tag_99:\n        /* \"#utility.yul\":1989:2013   */\n      tag_127\n        /* \"#utility.yul\":2007:2012   */\n      dup2\n        /* \"#utility.yul\":1989:2013   */\n      tag_94\n      jump\t// in\n    tag_127:\n        /* \"#utility.yul\":1982:1987   */\n      dup2\n        /* \"#utility.yul\":1979:2014   */\n      eq\n        /* \"#utility.yul\":1969:2032   */\n      tag_128\n      jumpi\n        /* \"#utility.yul\":2028:2029   */\n      0x00\n        /* \"#utility.yul\":2025:2026   */\n      dup1\n        /* \"#utility.yul\":2018:2030   */\n      revert\n        /* \"#utility.yul\":1969:2032   */\n    tag_128:\n        /* \"#utility.yul\":1916:2038   */\n      pop\n      jump\t// out\n        /* \"#utility.yul\":2044:2183   */\n    tag_100:\n        /* \"#utility.yul\":2090:2095   */\n      0x00\n        /* \"#utility.yul\":2128:2134   */\n      dup2\n        /* \"#utility.yul\":2115:2135   */\n      calldataload\n        /* \"#utility.yul\":2106:2135   */\n      swap1\n      pop\n        /* \"#utility.yul\":2144:2177   */\n      tag_130\n        /* \"#utility.yul\":2171:2176   */\n      dup2\n        /* \"#utility.yul\":2144:2177   */\n      tag_99\n      jump\t// in\n    tag_130:\n        /* \"#utility.yul\":2044:2183   */\n      swap3\n      swap2\n      pop\n      pop\n      jump\t// out\n        /* \"#utility.yul\":2189:2518   */\n    tag_48:\n        /* \"#utility.yul\":2248:2254   */\n      0x00\n        /* \"#utility.yul\":2297:2299   */\n      0x20\n        /* \"#utility.yul\":2285:2294   */\n      dup3\n        /* \"#utility.yul\":2276:2283   */\n      dup5\n        /* \"#utility.yul\":2272:2295   */\n      sub\n        /* \"#utility.yul\":2268:2300   */\n      slt\n        /* \"#utility.yul\":2265:2384   */\n      iszero\n      tag_132\n      jumpi\n        /* \"#utility.yul\":2303:2382   */\n      tag_133\n      tag_97\n      jump\t// in\n    tag_133:\n        /* \"#utility.yul\":2265:2384   */\n    tag_132:\n        /* \"#utility.yul\":2423:2424   */\n      0x00\n        /* \"#utility.yul\":2448:2501   */\n      tag_134\n        /* \"#utility.yul\":2493:2500   */\n      dup5\n        /* \"#utility.yul\":2484:2490   */\n      dup3\n        /* \"#utility.yul\":2473:2482   */\n      dup6\n        /* \"#utility.yul\":2469:2491   */\n      add\n        /* \"#utility.yul\":2448:2501   */\n      tag_100\n      jump\t// in\n    tag_134:\n        /* \"#utility.yul\":2438:2501   */\n      swap2\n      pop\n        /* \"#utility.yul\":2394:2511   */\n      pop\n        /* \"#utility.yul\":2189:2518   */\n      swap3\n      swap2\n      pop\n      pop\n      jump\t// out\n        /* \"#utility.yul\":2524:2856   */\n    tag_56:\n        /* \"#utility.yul\":2645:2649   */\n      0x00\n        /* \"#utility.yul\":2683:2685   */\n      0x40\n        /* \"#utility.yul\":2672:2681   */\n      dup3\n        /* \"#utility.yul\":2668:2686   */\n      add\n        /* \"#utility.yul\":2660:2686   */\n      swap1\n      pop\n        /* \"#utility.yul\":2696:2767   */\n      tag_136\n        /* \"#utility.yul\":2764:2765   */\n      0x00\n        /* \"#utility.yul\":2753:2762   */\n      dup4\n        /* \"#utility.yul\":2749:2766   */\n      add\n        /* \"#utility.yul\":2740:2746   */\n      dup6\n        /* \"#utility.yul\":2696:2767   */\n      tag_95\n      jump\t// in\n    tag_136:\n        /* \"#utility.yul\":2777:2849   */\n      tag_137\n        /* \"#utility.yul\":2845:2847   */\n      0x20\n        /* \"#utility.yul\":2834:2843   */\n      dup4\n        /* \"#utility.yul\":2830:2848   */\n      add\n        /* \"#utility.yul\":2821:2827   */\n      dup5\n        /* \"#utility.yul\":2777:2849   */\n      tag_95\n      jump\t// in\n    tag_137:\n        /* \"#utility.yul\":2524:2856   */\n      swap4\n      swap3\n      pop\n      pop\n      pop\n      jump\t// out\n        /* \"#utility.yul\":2862:3042   */\n    tag_101:\n        /* \"#utility.yul\":2910:2987   */\n      0x4e487b7100000000000000000000000000000000000000000000000000000000\n        /* \"#utility.yul\":2907:2908   */\n      0x00\n        /* \"#utility.yul\":2900:2988   */\n      mstore\n        /* \"#utility.yul\":3007:3011   */\n      0x11\n        /* \"#utility.yul\":3004:3005   */\n      0x04\n        /* \"#utility.yul\":2997:3012   */\n      mstore\n        /* \"#utility.yul\":3031:3035   */\n      0x24\n        /* \"#utility.yul\":3028:3029   */\n      0x00\n        /* \"#utility.yul\":3021:3036   */\n      revert\n        /* \"#utility.yul\":3048:3239   */\n    tag_58:\n        /* \"#utility.yul\":3088:3091   */\n      0x00\n        /* \"#utility.yul\":3107:3127   */\n      tag_140\n        /* \"#utility.yul\":3125:3126   */\n      dup3\n        /* \"#utility.yul\":3107:3127   */\n      tag_94\n      jump\t// in\n    tag_140:\n        /* \"#utility.yul\":3102:3127   */\n      swap2\n      pop\n        /* \"#utility.yul\":3141:3161   */\n      tag_141\n        /* \"#utility.yul\":3159:3160   */\n      dup4\n        /* \"#utility.yul\":3141:3161   */\n      tag_94\n      jump\t// in\n    tag_141:\n        /* \"#utility.yul\":3136:3161   */\n      swap3\n      pop\n        /* \"#utility.yul\":3184:3185   */\n      dup3\n        /* \"#utility.yul\":3181:3182   */\n      dup3\n        /* \"#utility.yul\":3177:3186   */\n      add\n        /* \"#utility.yul\":3170:3186   */\n      swap1\n      pop\n        /* \"#utility.yul\":3205:3208   */\n      dup1\n        /* \"#utility.yul\":3202:3203   */\n      dup3\n        /* \"#utility.yul\":3199:3209   */\n      gt\n        /* \"#utility.yul\":3196:3232   */\n      iszero\n      tag_142\n      jumpi\n        /* \"#utility.yul\":3212:3230   */\n      tag_143\n      tag_101\n      jump\t// in\n    tag_143:\n        /* \"#utility.yul\":3196:3232   */\n    tag_142:\n        /* \"#utility.yul\":3048:3239   */\n      swap3\n      swap2\n      pop\n      pop\n      jump\t// out\n        /* \"#utility.yul\":3245:3371   */\n    tag_102:\n        /* \"#utility.yul\":3282:3289   */\n      0x00\n        /* \"#utility.yul\":3322:3364   */\n      0xffffffffffffffffffffffffffffffffffffffff\n        /* \"#utility.yul\":3315:3320   */\n      dup3\n        /* \"#utility.yul\":3311:3365   */\n      and\n        /* \"#utility.yul\":3300:3365   */\n      swap1\n      pop\n        /* \"#utility.yul\":3245:3371   */\n      swap2\n      swap1\n      pop\n      jump\t// out\n        /* \"#utility.yul\":3377:3473   */\n    tag_103:\n        /* \"#utility.yul\":3414:3421   */\n      0x00\n        /* \"#utility.yul\":3443:3467   */\n      tag_146\n        /* \"#utility.yul\":3461:3466   */\n      dup3\n        /* \"#utility.yul\":3443:3467   */\n      tag_102\n      jump\t// in\n    tag_146:\n        /* \"#utility.yul\":3432:3467   */\n      swap1\n      pop\n        /* \"#utility.yul\":3377:3473   */\n      swap2\n      swap1\n      pop\n      jump\t// out\n        /* \"#utility.yul\":3479:3597   */\n    tag_104:\n        /* \"#utility.yul\":3566:3590   */\n      tag_148\n        /* \"#utility.yul\":3584:3589   */\n      dup2\n        /* \"#utility.yul\":3566:3590   */\n      tag_103\n      jump\t// in\n    tag_148:\n        /* \"#utility.yul\":3561:3564   */\n      dup3\n        /* \"#utility.yul\":3554:3591   */\n      mstore\n        /* \"#utility.yul\":3479:3597   */\n      pop\n      pop\n      jump\t// out\n        /* \"#utility.yul\":3603:3825   */\n    tag_68:\n        /* \"#utility.yul\":3696:3700   */\n      0x00\n        /* \"#utility.yul\":3734:3736   */\n      0x20\n        /* \"#utility.yul\":3723:3732   */\n      dup3\n        /* \"#utility.yul\":3719:3737   */\n      add\n        /* \"#utility.yul\":3711:3737   */\n      swap1\n      pop\n        /* \"#utility.yul\":3747:3818   */\n      tag_150\n        /* \"#utility.yul\":3815:3816   */\n      0x00\n        /* \"#utility.yul\":3804:3813   */\n      dup4\n        /* \"#utility.yul\":3800:3817   */\n      add\n        /* \"#utility.yul\":3791:3797   */\n      dup5\n        /* \"#utility.yul\":3747:3818   */\n      tag_104\n      jump\t// in\n    tag_150:\n        /* \"#utility.yul\":3603:3825   */\n      swap3\n      swap2\n      pop\n      pop\n      jump\t// out\n        /* \"#utility.yul\":3831:4025   */\n    tag_79:\n        /* \"#utility.yul\":3871:3875   */\n      0x00\n        /* \"#utility.yul\":3891:3911   */\n      tag_152\n        /* \"#utility.yul\":3909:3910   */\n      dup3\n        /* \"#utility.yul\":3891:3911   */\n      tag_94\n      jump\t// in\n    tag_152:\n        /* \"#utility.yul\":3886:3911   */\n      swap2\n      pop\n        /* \"#utility.yul\":3925:3945   */\n      tag_153\n        /* \"#utility.yul\":3943:3944   */\n      dup4\n        /* \"#utility.yul\":3925:3945   */\n      tag_94\n      jump\t// in\n    tag_153:\n        /* \"#utility.yul\":3920:3945   */\n      swap3\n      pop\n        /* \"#utility.yul\":3969:3970   */\n      dup3\n        /* \"#utility.yul\":3966:3967   */\n      dup3\n        /* \"#utility.yul\":3962:3971   */\n      sub\n        /* \"#utility.yul\":3954:3971   */\n      swap1\n      pop\n        /* \"#utility.yul\":3993:3994   */\n      dup2\n        /* \"#utility.yul\":3987:3991   */\n      dup2\n        /* \"#utility.yul\":3984:3995   */\n      gt\n        /* \"#utility.yul\":3981:4018   */\n      iszero\n      tag_154\n      jumpi\n        /* \"#utility.yul\":3998:4016   */\n      tag_155\n      tag_101\n      jump\t// in\n    tag_155:\n        /* \"#utility.yul\":3981:4018   */\n    tag_154:\n        /* \"#utility.yul\":3831:4025   */\n      swap3\n      swap2\n      pop\n      pop\n      jump\t// out\n        /* \"#utility.yul\":4031:4178   */\n    tag_105:\n        /* \"#utility.yul\":4132:4143   */\n      0x00\n        /* \"#utility.yul\":4169:4172   */\n      dup2\n        /* \"#utility.yul\":4154:4172   */\n      swap1\n      pop\n        /* \"#utility.yul\":4031:4178   */\n      swap3\n      swap2\n      pop\n      pop\n      jump\t// out\n        /* \"#utility.yul\":4184:4298   */\n    tag_106:\n      pop\n      jump\t// out\n        /* \"#utility.yul\":4304:4702   */\n    tag_107:\n        /* \"#utility.yul\":4463:4466   */\n      0x00\n        /* \"#utility.yul\":4484:4567   */\n      tag_159\n        /* \"#utility.yul\":4565:4566   */\n      0x00\n        /* \"#utility.yul\":4560:4563   */\n      dup4\n        /* \"#utility.yul\":4484:4567   */\n      tag_105\n      jump\t// in\n    tag_159:\n        /* \"#utility.yul\":4477:4567   */\n      swap2\n      pop\n        /* \"#utility.yul\":4576:4669   */\n      tag_160\n        /* \"#utility.yul\":4665:4668   */\n      dup3\n        /* \"#utility.yul\":4576:4669   */\n      tag_106\n      jump\t// in\n    tag_160:\n        /* \"#utility.yul\":4694:4695   */\n      0x00\n        /* \"#utility.yul\":4689:4692   */\n      dup3\n        /* \"#utility.yul\":4685:4696   */\n      add\n        /* \"#utility.yul\":4678:4696   */\n      swap1\n      pop\n        /* \"#utility.yul\":4304:4702   */\n      swap2\n      swap1\n      pop\n      jump\t// out\n        /* \"#utility.yul\":4708:5087   */\n    tag_81:\n        /* \"#utility.yul\":4892:4895   */\n      0x00\n        /* \"#utility.yul\":4914:5061   */\n      tag_162\n        /* \"#utility.yul\":5057:5060   */\n      dup3\n        /* \"#utility.yul\":4914:5061   */\n      tag_107\n      jump\t// in\n    tag_162:\n        /* \"#utility.yul\":4907:5061   */\n      swap2\n      pop\n        /* \"#utility.yul\":5078:5081   */\n      dup2\n        /* \"#utility.yul\":5071:5081   */\n      swap1\n      pop\n        /* \"#utility.yul\":4708:5087   */\n      swap2\n      swap1\n      pop\n      jump\t// out\n        /* \"#utility.yul\":5093:5313   */\n    tag_108:\n        /* \"#utility.yul\":5233:5267   */\n      0x66616c6c6f206c61207472616e73666572656e63696120616c20757375617269\n        /* \"#utility.yul\":5229:5230   */\n      0x00\n        /* \"#utility.yul\":5221:5227   */\n      dup3\n        /* \"#utility.yul\":5217:5231   */\n      add\n        /* \"#utility.yul\":5210:5268   */\n      mstore\n        /* \"#utility.yul\":5302:5305   */\n      0x6f00000000000000000000000000000000000000000000000000000000000000\n        /* \"#utility.yul\":5297:5299   */\n      0x20\n        /* \"#utility.yul\":5289:5295   */\n      dup3\n        /* \"#utility.yul\":5285:5300   */\n      add\n        /* \"#utility.yul\":5278:5306   */\n      mstore\n        /* \"#utility.yul\":5093:5313   */\n      pop\n      jump\t// out\n        /* \"#utility.yul\":5319:5685   */\n    tag_109:\n        /* \"#utility.yul\":5461:5464   */\n      0x00\n        /* \"#utility.yul\":5482:5549   */\n      tag_165\n        /* \"#utility.yul\":5546:5548   */\n      0x21\n        /* \"#utility.yul\":5541:5544   */\n      dup4\n        /* \"#utility.yul\":5482:5549   */\n      tag_91\n      jump\t// in\n    tag_165:\n        /* \"#utility.yul\":5475:5549   */\n      swap2\n      pop\n        /* \"#utility.yul\":5558:5651   */\n      tag_166\n        /* \"#utility.yul\":5647:5650   */\n      dup3\n        /* \"#utility.yul\":5558:5651   */\n      tag_108\n      jump\t// in\n    tag_166:\n        /* \"#utility.yul\":5676:5678   */\n      0x40\n        /* \"#utility.yul\":5671:5674   */\n      dup3\n        /* \"#utility.yul\":5667:5679   */\n      add\n        /* \"#utility.yul\":5660:5679   */\n      swap1\n      pop\n        /* \"#utility.yul\":5319:5685   */\n      swap2\n      swap1\n      pop\n      jump\t// out\n        /* \"#utility.yul\":5691:6110   */\n    tag_87:\n        /* \"#utility.yul\":5857:5861   */\n      0x00\n        /* \"#utility.yul\":5895:5897   */\n      0x20\n        /* \"#utility.yul\":5884:5893   */\n      dup3\n        /* \"#utility.yul\":5880:5898   */\n      add\n        /* \"#utility.yul\":5872:5898   */\n      swap1\n      pop\n        /* \"#utility.yul\":5944:5953   */\n      dup2\n        /* \"#utility.yul\":5938:5942   */\n      dup2\n        /* \"#utility.yul\":5934:5954   */\n      sub\n        /* \"#utility.yul\":5930:5931   */\n      0x00\n        /* \"#utility.yul\":5919:5928   */\n      dup4\n        /* \"#utility.yul\":5915:5932   */\n      add\n        /* \"#utility.yul\":5908:5955   */\n      mstore\n        /* \"#utility.yul\":5972:6103   */\n      tag_168\n        /* \"#utility.yul\":6098:6102   */\n      dup2\n        /* \"#utility.yul\":5972:6103   */\n      tag_109\n      jump\t// in\n    tag_168:\n        /* \"#utility.yul\":5964:6103   */\n      swap1\n      pop\n        /* \"#utility.yul\":5691:6110   */\n      swap2\n      swap1\n      pop\n      jump\t// out\n\n    auxdata: 0xa2646970667358221220fb5a0752af006c32b48696daa209b31c77d81e07414aceb56d800d71624e04f564736f6c63430008140033\n}\n",
				"bytecode": {
					"linkReferences": {},
					"object": "60a060405234801561000f575f80fd5b50670de0b6b3a7640000608081815250506080516109e86100465f395f818161035701528181610407015261043001526109e85ff3fe608060405260043610610073575f3560e01c806367b9be791161004d57806367b9be79146101325780636e459b5b1461015c578063b375d6fc14610186578063e8b1298f146101b057610082565b806311355030146100d45780633d922f90146100fe578063430887f21461010857610082565b36610082576100806101d8565b005b5f341115610097576100926101d8565b6100d2565b6040517f08c379a00000000000000000000000000000000000000000000000000000000081526004016100c990610729565b60405180910390fd5b005b3480156100df575f80fd5b506100e861032d565b6040516100f5919061075f565b60405180910390f35b610106610333565b005b348015610113575f80fd5b5061011c61033d565b604051610129919061075f565b60405180910390f35b34801561013d575f80fd5b50610146610346565b604051610153919061075f565b60405180910390f35b348015610167575f80fd5b5061017061034c565b60405161017d919061075f565b60405180910390f35b348015610191575f80fd5b5061019a610355565b6040516101a7919061075f565b60405180910390f35b3480156101bb575f80fd5b506101d660048036038101906101d191906107a6565b610379565b005b6103e860015410610222576103e86040517fc0e68f0e000000000000000000000000000000000000000000000000000000008152600401610219919061075f565b60405180910390fd5b64e8d4a51000341015610273573464e8d4a510006040517f7d34450100000000000000000000000000000000000000000000000000000000815260040161026a9291906107d1565b60405180910390fd5b345f803373ffffffffffffffffffffffffffffffffffffffff1673ffffffffffffffffffffffffffffffffffffffff1681526020019081526020015f205f8282546102be9190610825565b925050819055506001805f8282546102d69190610825565b925050819055503373ffffffffffffffffffffffffffffffffffffffff167f8e13c232b6ad491513c1540f8bc226e1c5072f2f8b9bcd13088a478c67fd5a4934604051610323919061075f565b60405180910390a2565b60015481565b61033b6101d8565b565b5f600154905090565b60025481565b5f600254905090565b7f000000000000000000000000000000000000000000000000000000000000000081565b5f805f3373ffffffffffffffffffffffffffffffffffffffff1673ffffffffffffffffffffffffffffffffffffffff1681526020019081526020015f2054036103f957336040517f3f0ce4250000000000000000000000000000000000000000000000000000000081526004016103f09190610897565b60405180910390fd5b5f6104033361068a565b90507f000000000000000000000000000000000000000000000000000000000000000082111561048c57817f00000000000000000000000000000000000000000000000000000000000000006040517f6e9571520000000000000000000000000000000000000000000000000000000081526004016104839291906107d1565b60405180910390fd5b64e8d4a510008210156104dd578164e8d4a510006040517f84f16cad0000000000000000000000000000000000000000000000000000000081526004016104d49291906107d1565b60405180910390fd5b818110156105245781816040517f6d11cf3400000000000000000000000000000000000000000000000000000000815260040161051b9291906107d1565b60405180910390fd5b815f803373ffffffffffffffffffffffffffffffffffffffff1673ffffffffffffffffffffffffffffffffffffffff1681526020019081526020015f205f82825461056f91906108b0565b925050819055505f3373ffffffffffffffffffffffffffffffffffffffff168360405161059b90610910565b5f6040518083038185875af1925050503d805f81146105d5576040519150601f19603f3d011682016040523d82523d5f602084013e6105da565b606091505b505090508061061e576040517f08c379a000000000000000000000000000000000000000000000000000000000815260040161061590610994565b60405180910390fd5b600160025f8282546106309190610825565b925050819055503373ffffffffffffffffffffffffffffffffffffffff167f6553d752fc46d96aab714525ba8f58c666892e2a31f2bf65d6d87db515bf81aa8460405161067d919061075f565b60405180910390a2505050565b5f805f8373ffffffffffffffffffffffffffffffffffffffff1673ffffffffffffffffffffffffffffffffffffffff1681526020019081526020015f20549050919050565b5f82825260208201905092915050565b7f46756e63696f6e20696e6578697374656e7465000000000000000000000000005f82015250565b5f6107136013836106cf565b915061071e826106df565b602082019050919050565b5f6020820190508181035f83015261074081610707565b9050919050565b5f819050919050565b61075981610747565b82525050565b5f6020820190506107725f830184610750565b92915050565b5f80fd5b61078581610747565b811461078f575f80fd5b50565b5f813590506107a08161077c565b92915050565b5f602082840312156107bb576107ba610778565b5b5f6107c884828501610792565b91505092915050565b5f6040820190506107e45f830185610750565b6107f16020830184610750565b9392505050565b7f4e487b71000000000000000000000000000000000000000000000000000000005f52601160045260245ffd5b5f61082f82610747565b915061083a83610747565b9250828201905080821115610852576108516107f8565b5b92915050565b5f73ffffffffffffffffffffffffffffffffffffffff82169050919050565b5f61088182610858565b9050919050565b61089181610877565b82525050565b5f6020820190506108aa5f830184610888565b92915050565b5f6108ba82610747565b91506108c583610747565b92508282039050818111156108dd576108dc6107f8565b5b92915050565b5f81905092915050565b50565b5f6108fb5f836108e3565b9150610906826108ed565b5f82019050919050565b5f61091a826108f0565b9150819050919050565b7f66616c6c6f206c61207472616e73666572656e63696120616c207573756172695f8201527f6f00000000000000000000000000000000000000000000000000000000000000602082015250565b5f61097e6021836106cf565b915061098982610924565b604082019050919050565b5f6020820190508181035f8301526109ab81610972565b905091905056fea2646970667358221220fb5a0752af006c32b48696daa209b31c77d81e07414aceb56d800d71624e04f564736f6c63430008140033",
					"opcodes": "PUSH1 0xA0 PUSH1 0x40 MSTORE CALLVALUE DUP1 ISZERO PUSH2 0xF JUMPI PUSH0 DUP1 REVERT JUMPDEST POP PUSH8 0xDE0B6B3A7640000 PUSH1 0x80 DUP2 DUP2 MSTORE POP POP PUSH1 0x80 MLOAD PUSH2 0x9E8 PUSH2 0x46 PUSH0 CODECOPY PUSH0 DUP2 DUP2 PUSH2 0x357 ADD MSTORE DUP2 DUP2 PUSH2 0x407 ADD MSTORE PUSH2 0x430 ADD MSTORE PUSH2 0x9E8 PUSH0 RETURN INVALID PUSH1 0x80 PUSH1 0x40 MSTORE PUSH1 0x4 CALLDATASIZE LT PUSH2 0x73 JUMPI PUSH0 CALLDATALOAD PUSH1 0xE0 SHR DUP1 PUSH4 0x67B9BE79 GT PUSH2 0x4D JUMPI DUP1 PUSH4 0x67B9BE79 EQ PUSH2 0x132 JUMPI DUP1 PUSH4 0x6E459B5B EQ PUSH2 0x15C JUMPI DUP1 PUSH4 0xB375D6FC EQ PUSH2 0x186 JUMPI DUP1 PUSH4 0xE8B1298F EQ PUSH2 0x1B0 JUMPI PUSH2 0x82 JUMP JUMPDEST DUP1 PUSH4 0x11355030 EQ PUSH2 0xD4 JUMPI DUP1 PUSH4 0x3D922F90 EQ PUSH2 0xFE JUMPI DUP1 PUSH4 0x430887F2 EQ PUSH2 0x108 JUMPI PUSH2 0x82 JUMP JUMPDEST CALLDATASIZE PUSH2 0x82 JUMPI PUSH2 0x80 PUSH2 0x1D8 JUMP JUMPDEST STOP JUMPDEST PUSH0 CALLVALUE GT ISZERO PUSH2 0x97 JUMPI PUSH2 0x92 PUSH2 0x1D8 JUMP JUMPDEST PUSH2 0xD2 JUMP JUMPDEST PUSH1 0x40 MLOAD PUSH32 0x8C379A000000000000000000000000000000000000000000000000000000000 DUP2 MSTORE PUSH1 0x4 ADD PUSH2 0xC9 SWAP1 PUSH2 0x729 JUMP JUMPDEST PUSH1 0x40 MLOAD DUP1 SWAP2 SUB SWAP1 REVERT JUMPDEST STOP JUMPDEST CALLVALUE DUP1 ISZERO PUSH2 0xDF JUMPI PUSH0 DUP1 REVERT JUMPDEST POP PUSH2 0xE8 PUSH2 0x32D JUMP JUMPDEST PUSH1 0x40 MLOAD PUSH2 0xF5 SWAP2 SWAP1 PUSH2 0x75F JUMP JUMPDEST PUSH1 0x40 MLOAD DUP1 SWAP2 SUB SWAP1 RETURN JUMPDEST PUSH2 0x106 PUSH2 0x333 JUMP JUMPDEST STOP JUMPDEST CALLVALUE DUP1 ISZERO PUSH2 0x113 JUMPI PUSH0 DUP1 REVERT JUMPDEST POP PUSH2 0x11C PUSH2 0x33D JUMP JUMPDEST PUSH1 0x40 MLOAD PUSH2 0x129 SWAP2 SWAP1 PUSH2 0x75F JUMP JUMPDEST PUSH1 0x40 MLOAD DUP1 SWAP2 SUB SWAP1 RETURN JUMPDEST CALLVALUE DUP1 ISZERO PUSH2 0x13D JUMPI PUSH0 DUP1 REVERT JUMPDEST POP PUSH2 0x146 PUSH2 0x346 JUMP JUMPDEST PUSH1 0x40 MLOAD PUSH2 0x153 SWAP2 SWAP1 PUSH2 0x75F JUMP JUMPDEST PUSH1 0x40 MLOAD DUP1 SWAP2 SUB SWAP1 RETURN JUMPDEST CALLVALUE DUP1 ISZERO PUSH2 0x167 JUMPI PUSH0 DUP1 REVERT JUMPDEST POP PUSH2 0x170 PUSH2 0x34C JUMP JUMPDEST PUSH1 0x40 MLOAD PUSH2 0x17D SWAP2 SWAP1 PUSH2 0x75F JUMP JUMPDEST PUSH1 0x40 MLOAD DUP1 SWAP2 SUB SWAP1 RETURN JUMPDEST CALLVALUE DUP1 ISZERO PUSH2 0x191 JUMPI PUSH0 DUP1 REVERT JUMPDEST POP PUSH2 0x19A PUSH2 0x355 JUMP JUMPDEST PUSH1 0x40 MLOAD PUSH2 0x1A7 SWAP2 SWAP1 PUSH2 0x75F JUMP JUMPDEST PUSH1 0x40 MLOAD DUP1 SWAP2 SUB SWAP1 RETURN JUMPDEST CALLVALUE DUP1 ISZERO PUSH2 0x1BB JUMPI PUSH0 DUP1 REVERT JUMPDEST POP PUSH2 0x1D6 PUSH1 0x4 DUP1 CALLDATASIZE SUB DUP2 ADD SWAP1 PUSH2 0x1D1 SWAP2 SWAP1 PUSH2 0x7A6 JUMP JUMPDEST PUSH2 0x379 JUMP JUMPDEST STOP JUMPDEST PUSH2 0x3E8 PUSH1 0x1 SLOAD LT PUSH2 0x222 JUMPI PUSH2 0x3E8 PUSH1 0x40 MLOAD PUSH32 0xC0E68F0E00000000000000000000000000000000000000000000000000000000 DUP2 MSTORE PUSH1 0x4 ADD PUSH2 0x219 SWAP2 SWAP1 PUSH2 0x75F JUMP JUMPDEST PUSH1 0x40 MLOAD DUP1 SWAP2 SUB SWAP1 REVERT JUMPDEST PUSH5 0xE8D4A51000 CALLVALUE LT ISZERO PUSH2 0x273 JUMPI CALLVALUE PUSH5 0xE8D4A51000 PUSH1 0x40 MLOAD PUSH32 0x7D34450100000000000000000000000000000000000000000000000000000000 DUP2 MSTORE PUSH1 0x4 ADD PUSH2 0x26A SWAP3 SWAP2 SWAP1 PUSH2 0x7D1 JUMP JUMPDEST PUSH1 0x40 MLOAD DUP1 SWAP2 SUB SWAP1 REVERT JUMPDEST CALLVALUE PUSH0 DUP1 CALLER PUSH20 0xFFFFFFFFFFFFFFFFFFFFFFFFFFFFFFFFFFFFFFFF AND PUSH20 0xFFFFFFFFFFFFFFFFFFFFFFFFFFFFFFFFFFFFFFFF AND DUP2 MSTORE PUSH1 0x20 ADD SWAP1 DUP2 MSTORE PUSH1 0x20 ADD PUSH0 KECCAK256 PUSH0 DUP3 DUP3 SLOAD PUSH2 0x2BE SWAP2 SWAP1 PUSH2 0x825 JUMP JUMPDEST SWAP3 POP POP DUP2 SWAP1 SSTORE POP PUSH1 0x1 DUP1 PUSH0 DUP3 DUP3 SLOAD PUSH2 0x2D6 SWAP2 SWAP1 PUSH2 0x825 JUMP JUMPDEST SWAP3 POP POP DUP2 SWAP1 SSTORE POP CALLER PUSH20 0xFFFFFFFFFFFFFFFFFFFFFFFFFFFFFFFFFFFFFFFF AND PUSH32 0x8E13C232B6AD491513C1540F8BC226E1C5072F2F8B9BCD13088A478C67FD5A49 CALLVALUE PUSH1 0x40 MLOAD PUSH2 0x323 SWAP2 SWAP1 PUSH2 0x75F JUMP JUMPDEST PUSH1 0x40 MLOAD DUP1 SWAP2 SUB SWAP1 LOG2 JUMP JUMPDEST PUSH1 0x1 SLOAD DUP2 JUMP JUMPDEST PUSH2 0x33B PUSH2 0x1D8 JUMP JUMPDEST JUMP JUMPDEST PUSH0 PUSH1 0x1 SLOAD SWAP1 POP SWAP1 JUMP JUMPDEST PUSH1 0x2 SLOAD DUP2 JUMP JUMPDEST PUSH0 PUSH1 0x2 SLOAD SWAP1 POP SWAP1 JUMP JUMPDEST PUSH32 0x0 DUP2 JUMP JUMPDEST PUSH0 DUP1 PUSH0 CALLER PUSH20 0xFFFFFFFFFFFFFFFFFFFFFFFFFFFFFFFFFFFFFFFF AND PUSH20 0xFFFFFFFFFFFFFFFFFFFFFFFFFFFFFFFFFFFFFFFF AND DUP2 MSTORE PUSH1 0x20 ADD SWAP1 DUP2 MSTORE PUSH1 0x20 ADD PUSH0 KECCAK256 SLOAD SUB PUSH2 0x3F9 JUMPI CALLER PUSH1 0x40 MLOAD PUSH32 0x3F0CE42500000000000000000000000000000000000000000000000000000000 DUP2 MSTORE PUSH1 0x4 ADD PUSH2 0x3F0 SWAP2 SWAP1 PUSH2 0x897 JUMP JUMPDEST PUSH1 0x40 MLOAD DUP1 SWAP2 SUB SWAP1 REVERT JUMPDEST PUSH0 PUSH2 0x403 CALLER PUSH2 0x68A JUMP JUMPDEST SWAP1 POP PUSH32 0x0 DUP3 GT ISZERO PUSH2 0x48C JUMPI DUP2 PUSH32 0x0 PUSH1 0x40 MLOAD PUSH32 0x6E95715200000000000000000000000000000000000000000000000000000000 DUP2 MSTORE PUSH1 0x4 ADD PUSH2 0x483 SWAP3 SWAP2 SWAP1 PUSH2 0x7D1 JUMP JUMPDEST PUSH1 0x40 MLOAD DUP1 SWAP2 SUB SWAP1 REVERT JUMPDEST PUSH5 0xE8D4A51000 DUP3 LT ISZERO PUSH2 0x4DD JUMPI DUP2 PUSH5 0xE8D4A51000 PUSH1 0x40 MLOAD PUSH32 0x84F16CAD00000000000000000000000000000000000000000000000000000000 DUP2 MSTORE PUSH1 0x4 ADD PUSH2 0x4D4 SWAP3 SWAP2 SWAP1 PUSH2 0x7D1 JUMP JUMPDEST PUSH1 0x40 MLOAD DUP1 SWAP2 SUB SWAP1 REVERT JUMPDEST DUP2 DUP2 LT ISZERO PUSH2 0x524 JUMPI DUP2 DUP2 PUSH1 0x40 MLOAD PUSH32 0x6D11CF3400000000000000000000000000000000000000000000000000000000 DUP2 MSTORE PUSH1 0x4 ADD PUSH2 0x51B SWAP3 SWAP2 SWAP1 PUSH2 0x7D1 JUMP JUMPDEST PUSH1 0x40 MLOAD DUP1 SWAP2 SUB SWAP1 REVERT JUMPDEST DUP2 PUSH0 DUP1 CALLER PUSH20 0xFFFFFFFFFFFFFFFFFFFFFFFFFFFFFFFFFFFFFFFF AND PUSH20 0xFFFFFFFFFFFFFFFFFFFFFFFFFFFFFFFFFFFFFFFF AND DUP2 MSTORE PUSH1 0x20 ADD SWAP1 DUP2 MSTORE PUSH1 0x20 ADD PUSH0 KECCAK256 PUSH0 DUP3 DUP3 SLOAD PUSH2 0x56F SWAP2 SWAP1 PUSH2 0x8B0 JUMP JUMPDEST SWAP3 POP POP DUP2 SWAP1 SSTORE POP PUSH0 CALLER PUSH20 0xFFFFFFFFFFFFFFFFFFFFFFFFFFFFFFFFFFFFFFFF AND DUP4 PUSH1 0x40 MLOAD PUSH2 0x59B SWAP1 PUSH2 0x910 JUMP JUMPDEST PUSH0 PUSH1 0x40 MLOAD DUP1 DUP4 SUB DUP2 DUP6 DUP8 GAS CALL SWAP3 POP POP POP RETURNDATASIZE DUP1 PUSH0 DUP2 EQ PUSH2 0x5D5 JUMPI PUSH1 0x40 MLOAD SWAP2 POP PUSH1 0x1F NOT PUSH1 0x3F RETURNDATASIZE ADD AND DUP3 ADD PUSH1 0x40 MSTORE RETURNDATASIZE DUP3 MSTORE RETURNDATASIZE PUSH0 PUSH1 0x20 DUP5 ADD RETURNDATACOPY PUSH2 0x5DA JUMP JUMPDEST PUSH1 0x60 SWAP2 POP JUMPDEST POP POP SWAP1 POP DUP1 PUSH2 0x61E JUMPI PUSH1 0x40 MLOAD PUSH32 0x8C379A000000000000000000000000000000000000000000000000000000000 DUP2 MSTORE PUSH1 0x4 ADD PUSH2 0x615 SWAP1 PUSH2 0x994 JUMP JUMPDEST PUSH1 0x40 MLOAD DUP1 SWAP2 SUB SWAP1 REVERT JUMPDEST PUSH1 0x1 PUSH1 0x2 PUSH0 DUP3 DUP3 SLOAD PUSH2 0x630 SWAP2 SWAP1 PUSH2 0x825 JUMP JUMPDEST SWAP3 POP POP DUP2 SWAP1 SSTORE POP CALLER PUSH20 0xFFFFFFFFFFFFFFFFFFFFFFFFFFFFFFFFFFFFFFFF AND PUSH32 0x6553D752FC46D96AAB714525BA8F58C666892E2A31F2BF65D6D87DB515BF81AA DUP5 PUSH1 0x40 MLOAD PUSH2 0x67D SWAP2 SWAP1 PUSH2 0x75F JUMP JUMPDEST PUSH1 0x40 MLOAD DUP1 SWAP2 SUB SWAP1 LOG2 POP POP POP JUMP JUMPDEST PUSH0 DUP1 PUSH0 DUP4 PUSH20 0xFFFFFFFFFFFFFFFFFFFFFFFFFFFFFFFFFFFFFFFF AND PUSH20 0xFFFFFFFFFFFFFFFFFFFFFFFFFFFFFFFFFFFFFFFF AND DUP2 MSTORE PUSH1 0x20 ADD SWAP1 DUP2 MSTORE PUSH1 0x20 ADD PUSH0 KECCAK256 SLOAD SWAP1 POP SWAP2 SWAP1 POP JUMP JUMPDEST PUSH0 DUP3 DUP3 MSTORE PUSH1 0x20 DUP3 ADD SWAP1 POP SWAP3 SWAP2 POP POP JUMP JUMPDEST PUSH32 0x46756E63696F6E20696E6578697374656E746500000000000000000000000000 PUSH0 DUP3 ADD MSTORE POP JUMP JUMPDEST PUSH0 PUSH2 0x713 PUSH1 0x13 DUP4 PUSH2 0x6CF JUMP JUMPDEST SWAP2 POP PUSH2 0x71E DUP3 PUSH2 0x6DF JUMP JUMPDEST PUSH1 0x20 DUP3 ADD SWAP1 POP SWAP2 SWAP1 POP JUMP JUMPDEST PUSH0 PUSH1 0x20 DUP3 ADD SWAP1 POP DUP2 DUP2 SUB PUSH0 DUP4 ADD MSTORE PUSH2 0x740 DUP2 PUSH2 0x707 JUMP JUMPDEST SWAP1 POP SWAP2 SWAP1 POP JUMP JUMPDEST PUSH0 DUP2 SWAP1 POP SWAP2 SWAP1 POP JUMP JUMPDEST PUSH2 0x759 DUP2 PUSH2 0x747 JUMP JUMPDEST DUP3 MSTORE POP POP JUMP JUMPDEST PUSH0 PUSH1 0x20 DUP3 ADD SWAP1 POP PUSH2 0x772 PUSH0 DUP4 ADD DUP5 PUSH2 0x750 JUMP JUMPDEST SWAP3 SWAP2 POP POP JUMP JUMPDEST PUSH0 DUP1 REVERT JUMPDEST PUSH2 0x785 DUP2 PUSH2 0x747 JUMP JUMPDEST DUP2 EQ PUSH2 0x78F JUMPI PUSH0 DUP1 REVERT JUMPDEST POP JUMP JUMPDEST PUSH0 DUP2 CALLDATALOAD SWAP1 POP PUSH2 0x7A0 DUP2 PUSH2 0x77C JUMP JUMPDEST SWAP3 SWAP2 POP POP JUMP JUMPDEST PUSH0 PUSH1 0x20 DUP3 DUP5 SUB SLT ISZERO PUSH2 0x7BB JUMPI PUSH2 0x7BA PUSH2 0x778 JUMP JUMPDEST JUMPDEST PUSH0 PUSH2 0x7C8 DUP5 DUP3 DUP6 ADD PUSH2 0x792 JUMP JUMPDEST SWAP2 POP POP SWAP3 SWAP2 POP POP JUMP JUMPDEST PUSH0 PUSH1 0x40 DUP3 ADD SWAP1 POP PUSH2 0x7E4 PUSH0 DUP4 ADD DUP6 PUSH2 0x750 JUMP JUMPDEST PUSH2 0x7F1 PUSH1 0x20 DUP4 ADD DUP5 PUSH2 0x750 JUMP JUMPDEST SWAP4 SWAP3 POP POP POP JUMP JUMPDEST PUSH32 0x4E487B7100000000000000000000000000000000000000000000000000000000 PUSH0 MSTORE PUSH1 0x11 PUSH1 0x4 MSTORE PUSH1 0x24 PUSH0 REVERT JUMPDEST PUSH0 PUSH2 0x82F DUP3 PUSH2 0x747 JUMP JUMPDEST SWAP2 POP PUSH2 0x83A DUP4 PUSH2 0x747 JUMP JUMPDEST SWAP3 POP DUP3 DUP3 ADD SWAP1 POP DUP1 DUP3 GT ISZERO PUSH2 0x852 JUMPI PUSH2 0x851 PUSH2 0x7F8 JUMP JUMPDEST JUMPDEST SWAP3 SWAP2 POP POP JUMP JUMPDEST PUSH0 PUSH20 0xFFFFFFFFFFFFFFFFFFFFFFFFFFFFFFFFFFFFFFFF DUP3 AND SWAP1 POP SWAP2 SWAP1 POP JUMP JUMPDEST PUSH0 PUSH2 0x881 DUP3 PUSH2 0x858 JUMP JUMPDEST SWAP1 POP SWAP2 SWAP1 POP JUMP JUMPDEST PUSH2 0x891 DUP2 PUSH2 0x877 JUMP JUMPDEST DUP3 MSTORE POP POP JUMP JUMPDEST PUSH0 PUSH1 0x20 DUP3 ADD SWAP1 POP PUSH2 0x8AA PUSH0 DUP4 ADD DUP5 PUSH2 0x888 JUMP JUMPDEST SWAP3 SWAP2 POP POP JUMP JUMPDEST PUSH0 PUSH2 0x8BA DUP3 PUSH2 0x747 JUMP JUMPDEST SWAP2 POP PUSH2 0x8C5 DUP4 PUSH2 0x747 JUMP JUMPDEST SWAP3 POP DUP3 DUP3 SUB SWAP1 POP DUP2 DUP2 GT ISZERO PUSH2 0x8DD JUMPI PUSH2 0x8DC PUSH2 0x7F8 JUMP JUMPDEST JUMPDEST SWAP3 SWAP2 POP POP JUMP JUMPDEST PUSH0 DUP2 SWAP1 POP SWAP3 SWAP2 POP POP JUMP JUMPDEST POP JUMP JUMPDEST PUSH0 PUSH2 0x8FB PUSH0 DUP4 PUSH2 0x8E3 JUMP JUMPDEST SWAP2 POP PUSH2 0x906 DUP3 PUSH2 0x8ED JUMP JUMPDEST PUSH0 DUP3 ADD SWAP1 POP SWAP2 SWAP1 POP JUMP JUMPDEST PUSH0 PUSH2 0x91A DUP3 PUSH2 0x8F0 JUMP JUMPDEST SWAP2 POP DUP2 SWAP1 POP SWAP2 SWAP1 POP JUMP JUMPDEST PUSH32 0x66616C6C6F206C61207472616E73666572656E63696120616C20757375617269 PUSH0 DUP3 ADD MSTORE PUSH32 0x6F00000000000000000000000000000000000000000000000000000000000000 PUSH1 0x20 DUP3 ADD MSTORE POP JUMP JUMPDEST PUSH0 PUSH2 0x97E PUSH1 0x21 DUP4 PUSH2 0x6CF JUMP JUMPDEST SWAP2 POP PUSH2 0x989 DUP3 PUSH2 0x924 JUMP JUMPDEST PUSH1 0x40 DUP3 ADD SWAP1 POP SWAP2 SWAP1 POP JUMP JUMPDEST PUSH0 PUSH1 0x20 DUP3 ADD SWAP1 POP DUP2 DUP2 SUB PUSH0 DUP4 ADD MSTORE PUSH2 0x9AB DUP2 PUSH2 0x972 JUMP JUMPDEST SWAP1 POP SWAP2 SWAP1 POP JUMP INVALID LOG2 PUSH5 0x6970667358 0x22 SLT KECCAK256 0xFB GAS SMOD MSTORE 0xAF STOP PUSH13 0x32B48696DAA209B31C77D81E07 COINBASE 0x4A 0xCE 0xB5 PUSH14 0x800D71624E04F564736F6C634300 ADDMOD EQ STOP CALLER "
				},
				"gasEstimates": {
					"creation": {
						"codeDepositCost": "507200",
						"executionCost": "infinite",
						"totalCost": "infinite"
					},
					"external": {
						"": "infinite",
						"cantidad_depositos()": "2477",
						"cantidad_retiros()": "2454",
						"depositar()": "infinite",
						"retirar(uint256)": "infinite",
						"s_cant_depositos()": "2426",
						"s_cant_retiros()": "2425",
						"s_umbral()": "infinite"
					},
					"internal": {
						"_deposit()": "infinite",
						"balance_del_usuario(address)": "2221"
					}
				},
				"methodIdentifiers": {
					"cantidad_depositos()": "430887f2",
					"cantidad_retiros()": "6e459b5b",
					"depositar()": "3d922f90",
					"retirar(uint256)": "e8b1298f",
					"s_cant_depositos()": "11355030",
					"s_cant_retiros()": "67b9be79",
					"s_umbral()": "b375d6fc"
				}
			},
			"storageLayout": {
				"storage": [
					{
						"astId": 7,
						"contract": "contracts/Kipu_Bank.sol:Kipu_Bank",
						"label": "s_usuarios_balance",
						"offset": 0,
						"slot": "0",
						"type": "t_mapping(t_address,t_uint256)"
					},
					{
						"astId": 10,
						"contract": "contracts/Kipu_Bank.sol:Kipu_Bank",
						"label": "s_cant_depositos",
						"offset": 0,
						"slot": "1",
						"type": "t_uint256"
					},
					{
						"astId": 13,
						"contract": "contracts/Kipu_Bank.sol:Kipu_Bank",
						"label": "s_cant_retiros",
						"offset": 0,
						"slot": "2",
						"type": "t_uint256"
					}
				],
				"types": {
					"t_address": {
						"encoding": "inplace",
						"label": "address",
						"numberOfBytes": "20"
					},
					"t_mapping(t_address,t_uint256)": {
						"encoding": "mapping",
						"key": "t_address",
						"label": "mapping(address => uint256)",
						"numberOfBytes": "32",
						"value": "t_uint256"
					},
					"t_uint256": {
						"encoding": "inplace",
						"label": "uint256",
						"numberOfBytes": "32"
					}
				}
			},
			"userdoc": {
				"errors": {
					"FondosInsuficientes(uint256,uint256)": [
						{
							"notice": "intenta retirar monto mayor a su balance"
						}
					],
					"MenorAlMinimoDeposito(uint256,uint256)": [
						{
							"notice": "se intenta depositar un monto menor al minimo"
						}
					],
					"MenorAlMinimoRetiro(uint256,uint256)": [
						{
							"notice": "se intenta retirar un monto menor al minimo"
						}
					],
					"RetiroMayorQueUmbral(uint256,uint256)": [
						{
							"notice": "se intenta retirar una cantidad mayor al umbral"
						}
					],
					"SuperoLimiteDepositos(uint256)": [
						{
							"notice": "se supero la cantidad global de depositos"
						}
					],
					"UsuarioSinFondos(address)": [
						{
							"notice": "el usuario no tiene fondos"
						}
					]
				},
				"events": {
					"DepositoExitoso(address,uint256)": {
						"notice": "avisa el monto depositado por usuario de manera exitosa"
					},
					"RetiroExitoso(address,uint256)": {
						"notice": "avisa el monto retirado por usuario de manera exitosa"
					}
				},
				"kind": "user",
				"methods": {
					"cantidad_depositos()": {
						"notice": "cantidad de depositos globales"
					},
					"cantidad_retiros()": {
						"notice": "cantidad de retiros globales"
					},
					"depositar()": {
						"notice": "permite depositar en el balance del usuario"
					},
					"s_cant_depositos()": {
						"notice": "cantidad de depositos totales"
					},
					"s_cant_retiros()": {
						"notice": "cantidad de retiros totales"
					},
					"s_umbral()": {
						"notice": "umbral de retiro por transaccion"
					}
				},
				"notice": "contrato que permite al usuario depositar y retirar ether",
				"version": 1
			}
		}
	}
}